{
  "_format": "hh-sol-artifact-1",
  "contractName": "Ballot",
  "sourceName": "contracts/Ballot.sol",
  "abi": [
    {
      "inputs": [
        {
          "internalType": "string[]",
          "name": "proposalNames",
          "type": "string[]"
        }
      ],
      "stateMutability": "nonpayable",
      "type": "constructor"
    },
    {
      "inputs": [],
      "name": "chairperson",
      "outputs": [
        {
          "internalType": "address",
          "name": "",
          "type": "address"
        }
      ],
      "stateMutability": "view",
      "type": "function"
    },
    {
      "inputs": [
        {
          "internalType": "address",
          "name": "to",
          "type": "address"
        }
      ],
      "name": "delegate",
      "outputs": [],
      "stateMutability": "nonpayable",
      "type": "function"
    },
    {
      "inputs": [
        {
          "internalType": "address[]",
          "name": "voteAddressList",
          "type": "address[]"
        }
      ],
      "name": "giveRightToVote",
      "outputs": [],
      "stateMutability": "nonpayable",
      "type": "function"
    },
    {
      "inputs": [],
      "name": "proposalList",
      "outputs": [
        {
          "components": [
            {
              "internalType": "string",
              "name": "name",
              "type": "string"
            },
            {
              "internalType": "uint256",
              "name": "voteCount",
              "type": "uint256"
            }
          ],
          "internalType": "struct Ballot.Proposal[]",
          "name": "",
          "type": "tuple[]"
        }
      ],
      "stateMutability": "view",
      "type": "function"
    },
    {
      "inputs": [
        {
          "internalType": "uint256",
          "name": "",
          "type": "uint256"
        }
      ],
      "name": "proposals",
      "outputs": [
        {
          "internalType": "string",
          "name": "name",
          "type": "string"
        },
        {
          "internalType": "uint256",
          "name": "voteCount",
          "type": "uint256"
        }
      ],
      "stateMutability": "view",
      "type": "function"
    },
    {
      "inputs": [
        {
          "internalType": "uint256",
          "name": "idx",
          "type": "uint256"
        }
      ],
      "name": "vote",
      "outputs": [],
      "stateMutability": "nonpayable",
      "type": "function"
    },
    {
      "inputs": [
        {
          "internalType": "address",
          "name": "",
          "type": "address"
        }
      ],
      "name": "voters",
      "outputs": [
        {
          "internalType": "uint256",
          "name": "weight",
          "type": "uint256"
        },
        {
          "internalType": "bool",
          "name": "voted",
          "type": "bool"
        },
        {
          "internalType": "address",
          "name": "delegate",
          "type": "address"
        },
        {
          "internalType": "uint256",
          "name": "vote",
          "type": "uint256"
        }
      ],
      "stateMutability": "view",
      "type": "function"
    },
    {
      "inputs": [],
      "name": "winningProposal",
      "outputs": [
        {
          "internalType": "uint256",
          "name": "winningProposal_",
          "type": "uint256"
        }
      ],
      "stateMutability": "view",
      "type": "function"
    }
  ],
  "bytecode": "0x608060405234801561001057600080fd5b50604051611ca4380380611ca4833981810160405281019061003291906103d8565b336000806101000a81548173ffffffffffffffffffffffffffffffffffffffff021916908373ffffffffffffffffffffffffffffffffffffffff16021790555060018060008060009054906101000a900473ffffffffffffffffffffffffffffffffffffffff1673ffffffffffffffffffffffffffffffffffffffff1673ffffffffffffffffffffffffffffffffffffffff1681526020019081526020016000206000018190555060005b8151811015610176576000604051806040016040528084848151811061010657610105610421565b5b60200260200101518152602001600081525090506002819080600181540180825580915050600190039060005260206000209060020201600090919091909150600082015181600001908161015b9190610671565b506020820151816001015550505080806001019150506100dd565b5050610743565b6000604051905090565b600080fd5b600080fd5b600080fd5b6000601f19601f8301169050919050565b7f4e487b7100000000000000000000000000000000000000000000000000000000600052604160045260246000fd5b6101df82610196565b810181811067ffffffffffffffff821117156101fe576101fd6101a7565b5b80604052505050565b600061021161017d565b905061021d82826101d6565b919050565b600067ffffffffffffffff82111561023d5761023c6101a7565b5b602082029050602081019050919050565b600080fd5b600080fd5b600067ffffffffffffffff821115610273576102726101a7565b5b61027c82610196565b9050602081019050919050565b60005b838110156102a757808201518184015260208101905061028c565b60008484015250505050565b60006102c66102c184610258565b610207565b9050828152602081018484840111156102e2576102e1610253565b5b6102ed848285610289565b509392505050565b600082601f83011261030a57610309610191565b5b815161031a8482602086016102b3565b91505092915050565b600061033661033184610222565b610207565b905080838252602082019050602084028301858111156103595761035861024e565b5b835b818110156103a057805167ffffffffffffffff81111561037e5761037d610191565b5b80860161038b89826102f5565b8552602085019450505060208101905061035b565b5050509392505050565b600082601f8301126103bf576103be610191565b5b81516103cf848260208601610323565b91505092915050565b6000602082840312156103ee576103ed610187565b5b600082015167ffffffffffffffff81111561040c5761040b61018c565b5b610418848285016103aa565b91505092915050565b7f4e487b7100000000000000000000000000000000000000000000000000000000600052603260045260246000fd5b600081519050919050565b7f4e487b7100000000000000000000000000000000000000000000000000000000600052602260045260246000fd5b600060028204905060018216806104a257607f821691505b6020821081036104b5576104b461045b565b5b50919050565b60008190508160005260206000209050919050565b60006020601f8301049050919050565b600082821b905092915050565b60006008830261051d7fffffffffffffffffffffffffffffffffffffffffffffffffffffffffffffffff826104e0565b61052786836104e0565b95508019841693508086168417925050509392505050565b6000819050919050565b6000819050919050565b600061056e6105696105648461053f565b610549565b61053f565b9050919050565b6000819050919050565b61058883610553565b61059c61059482610575565b8484546104ed565b825550505050565b600090565b6105b16105a4565b6105bc81848461057f565b505050565b5b818110156105e0576105d56000826105a9565b6001810190506105c2565b5050565b601f821115610625576105f6816104bb565b6105ff846104d0565b8101602085101561060e578190505b61062261061a856104d0565b8301826105c1565b50505b505050565b600082821c905092915050565b60006106486000198460080261062a565b1980831691505092915050565b60006106618383610637565b9150826002028217905092915050565b61067a82610450565b67ffffffffffffffff811115610693576106926101a7565b5b61069d825461048a565b6106a88282856105e4565b600060209050601f8311600181146106db57600084156106c9578287015190505b6106d38582610655565b86555061073b565b601f1984166106e9866104bb565b60005b82811015610711578489015182556001820191506020850194506020810190506106ec565b8683101561072e578489015161072a601f891682610637565b8355505b6001600288020188555050505b505050505050565b611552806107526000396000f3fe608060405234801561001057600080fd5b50600436106100885760003560e01c80635c19a95c1161005b5780635c19a95c14610116578063609ff1bd146101325780638581682914610150578063a3ec138d1461016c57610088565b80630121b93f1461008d578063013cf08b146100a95780632e4176cf146100da57806344389524146100f8575b600080fd5b6100a760048036038101906100a29190610b93565b61019f565b005b6100c360048036038101906100be9190610b93565b61032c565b6040516100d1929190610c5f565b60405180910390f35b6100e26103e8565b6040516100ef9190610cd0565b60405180910390f35b61010061040c565b60405161010d9190610e43565b60405180910390f35b610130600480360381019061012b9190610e91565b610507565b005b61013a6108a7565b6040516101479190610ebe565b60405180910390f35b61016a60048036038101906101659190611021565b610971565b005b61018660048036038101906101819190610e91565b610aec565b6040516101969493929190611085565b60405180910390f35b6000600160003373ffffffffffffffffffffffffffffffffffffffff1673ffffffffffffffffffffffffffffffffffffffff16815260200190815260200160002090506000816000015403610229576040517f08c379a000000000000000000000000000000000000000000000000000000000815260040161022090611116565b60405180910390fd5b8060010160009054906101000a900460ff161561027b576040517f08c379a000000000000000000000000000000000000000000000000000000000815260040161027290611182565b60405180910390fd5b60028054905082106102c2576040517f08c379a00000000000000000000000000000000000000000000000000000000081526004016102b9906111ee565b60405180910390fd5b60018160010160006101000a81548160ff0219169083151502179055508181600201819055508060000154600283815481106103015761030061120e565b5b90600052602060002090600202016001016000828254610321919061126c565b925050819055505050565b6002818154811061033c57600080fd5b906000526020600020906002020160009150905080600001805461035f906112cf565b80601f016020809104026020016040519081016040528092919081815260200182805461038b906112cf565b80156103d85780601f106103ad576101008083540402835291602001916103d8565b820191906000526020600020905b8154815290600101906020018083116103bb57829003601f168201915b5050505050908060010154905082565b60008054906101000a900473ffffffffffffffffffffffffffffffffffffffff1681565b60606002805480602002602001604051908101604052809291908181526020016000905b828210156104fe5783829060005260206000209060020201604051806040016040529081600082018054610463906112cf565b80601f016020809104026020016040519081016040528092919081815260200182805461048f906112cf565b80156104dc5780601f106104b1576101008083540402835291602001916104dc565b820191906000526020600020905b8154815290600101906020018083116104bf57829003601f168201915b5050505050815260200160018201548152505081526020019060010190610430565b50505050905090565b6000600160003373ffffffffffffffffffffffffffffffffffffffff1673ffffffffffffffffffffffffffffffffffffffff16815260200190815260200160002090508060010160009054906101000a900460ff161561059c576040517f08c379a00000000000000000000000000000000000000000000000000000000081526004016105939061134c565b60405180910390fd5b8173ffffffffffffffffffffffffffffffffffffffff163373ffffffffffffffffffffffffffffffffffffffff160361060a576040517f08c379a0000000000000000000000000000000000000000000000000000000008152600401610601906113b8565b60405180910390fd5b60008290505b600073ffffffffffffffffffffffffffffffffffffffff16600160008373ffffffffffffffffffffffffffffffffffffffff1673ffffffffffffffffffffffffffffffffffffffff16815260200190815260200160002060010160019054906101000a900473ffffffffffffffffffffffffffffffffffffffff1673ffffffffffffffffffffffffffffffffffffffff161461077e57600160008273ffffffffffffffffffffffffffffffffffffffff1673ffffffffffffffffffffffffffffffffffffffff16815260200190815260200160002060010160019054906101000a900473ffffffffffffffffffffffffffffffffffffffff1690503373ffffffffffffffffffffffffffffffffffffffff168173ffffffffffffffffffffffffffffffffffffffff1603610779576040517f08c379a000000000000000000000000000000000000000000000000000000000815260040161077090611424565b60405180910390fd5b610610565b60018260010160006101000a81548160ff021916908315150217905550828260010160016101000a81548173ffffffffffffffffffffffffffffffffffffffff021916908373ffffffffffffffffffffffffffffffffffffffff1602179055506000600160008573ffffffffffffffffffffffffffffffffffffffff1673ffffffffffffffffffffffffffffffffffffffff16815260200190815260200160002090508060010160009054906101000a900460ff161561088157826000015460028260020154815481106108555761085461120e565b5b90600052602060002090600202016001016000828254610875919061126c565b925050819055506108a1565b8260000154816000016000828254610899919061126c565b925050819055505b50505050565b600080600090506000600280549050116108f6576040517f08c379a00000000000000000000000000000000000000000000000000000000081526004016108ed90611490565b60405180910390fd5b60005b60028054905081101561096c57816002828154811061091b5761091a61120e565b5b906000526020600020906002020160010154111561095f57600281815481106109475761094661120e565b5b90600052602060002090600202016001015491508092505b80806001019150506108f9565b505090565b60008054906101000a900473ffffffffffffffffffffffffffffffffffffffff1673ffffffffffffffffffffffffffffffffffffffff163373ffffffffffffffffffffffffffffffffffffffff16146109ff576040517f08c379a00000000000000000000000000000000000000000000000000000000081526004016109f6906114fc565b60405180910390fd5b60005b8151811015610ae85760016000838381518110610a2257610a2161120e565b5b602002602001015173ffffffffffffffffffffffffffffffffffffffff1673ffffffffffffffffffffffffffffffffffffffff16815260200190815260200160002060010160009054906101000a900460ff16610adb576001806000848481518110610a9157610a9061120e565b5b602002602001015173ffffffffffffffffffffffffffffffffffffffff1673ffffffffffffffffffffffffffffffffffffffff168152602001908152602001600020600001819055505b8080600101915050610a02565b5050565b60016020528060005260406000206000915090508060000154908060010160009054906101000a900460ff16908060010160019054906101000a900473ffffffffffffffffffffffffffffffffffffffff16908060020154905084565b6000604051905090565b600080fd5b600080fd5b6000819050919050565b610b7081610b5d565b8114610b7b57600080fd5b50565b600081359050610b8d81610b67565b92915050565b600060208284031215610ba957610ba8610b53565b5b6000610bb784828501610b7e565b91505092915050565b600081519050919050565b600082825260208201905092915050565b60005b83811015610bfa578082015181840152602081019050610bdf565b60008484015250505050565b6000601f19601f8301169050919050565b6000610c2282610bc0565b610c2c8185610bcb565b9350610c3c818560208601610bdc565b610c4581610c06565b840191505092915050565b610c5981610b5d565b82525050565b60006040820190508181036000830152610c798185610c17565b9050610c886020830184610c50565b9392505050565b600073ffffffffffffffffffffffffffffffffffffffff82169050919050565b6000610cba82610c8f565b9050919050565b610cca81610caf565b82525050565b6000602082019050610ce56000830184610cc1565b92915050565b600081519050919050565b600082825260208201905092915050565b6000819050602082019050919050565b600082825260208201905092915050565b6000610d3382610bc0565b610d3d8185610d17565b9350610d4d818560208601610bdc565b610d5681610c06565b840191505092915050565b610d6a81610b5d565b82525050565b60006040830160008301518482036000860152610d8d8282610d28565b9150506020830151610da26020860182610d61565b508091505092915050565b6000610db98383610d70565b905092915050565b6000602082019050919050565b6000610dd982610ceb565b610de38185610cf6565b935083602082028501610df585610d07565b8060005b85811015610e315784840389528151610e128582610dad565b9450610e1d83610dc1565b925060208a01995050600181019050610df9565b50829750879550505050505092915050565b60006020820190508181036000830152610e5d8184610dce565b905092915050565b610e6e81610caf565b8114610e7957600080fd5b50565b600081359050610e8b81610e65565b92915050565b600060208284031215610ea757610ea6610b53565b5b6000610eb584828501610e7c565b91505092915050565b6000602082019050610ed36000830184610c50565b92915050565b600080fd5b7f4e487b7100000000000000000000000000000000000000000000000000000000600052604160045260246000fd5b610f1682610c06565b810181811067ffffffffffffffff82111715610f3557610f34610ede565b5b80604052505050565b6000610f48610b49565b9050610f548282610f0d565b919050565b600067ffffffffffffffff821115610f7457610f73610ede565b5b602082029050602081019050919050565b600080fd5b6000610f9d610f9884610f59565b610f3e565b90508083825260208201905060208402830185811115610fc057610fbf610f85565b5b835b81811015610fe95780610fd58882610e7c565b845260208401935050602081019050610fc2565b5050509392505050565b600082601f83011261100857611007610ed9565b5b8135611018848260208601610f8a565b91505092915050565b60006020828403121561103757611036610b53565b5b600082013567ffffffffffffffff81111561105557611054610b58565b5b61106184828501610ff3565b91505092915050565b60008115159050919050565b61107f8161106a565b82525050565b600060808201905061109a6000830187610c50565b6110a76020830186611076565b6110b46040830185610cc1565b6110c16060830184610c50565b95945050505050565b7f486173206e6f20726967687420746f20766f7465000000000000000000000000600082015250565b6000611100601483610bcb565b915061110b826110ca565b602082019050919050565b6000602082019050818103600083015261112f816110f3565b9050919050565b7f416c726561647920766f7465642e000000000000000000000000000000000000600082015250565b600061116c600e83610bcb565b915061117782611136565b602082019050919050565b6000602082019050818103600083015261119b8161115f565b9050919050565b7f496e76616c69642070726f706f73616c20696e64657800000000000000000000600082015250565b60006111d8601683610bcb565b91506111e3826111a2565b602082019050919050565b60006020820190508181036000830152611207816111cb565b9050919050565b7f4e487b7100000000000000000000000000000000000000000000000000000000600052603260045260246000fd5b7f4e487b7100000000000000000000000000000000000000000000000000000000600052601160045260246000fd5b600061127782610b5d565b915061128283610b5d565b925082820190508082111561129a5761129961123d565b5b92915050565b7f4e487b7100000000000000000000000000000000000000000000000000000000600052602260045260246000fd5b600060028204905060018216806112e757607f821691505b6020821081036112fa576112f96112a0565b5b50919050565b7f796f7520616c726561647920766f746564000000000000000000000000000000600082015250565b6000611336601183610bcb565b915061134182611300565b602082019050919050565b6000602082019050818103600083015261136581611329565b9050919050565b7f73656c662064656c6567617465206973206e6f7420616c6c6f77656400000000600082015250565b60006113a2601c83610bcb565b91506113ad8261136c565b602082019050919050565b600060208201905081810360008301526113d181611395565b9050919050565b7f466f756e64206c6f6f7020696e2064656c65676174696f6e0000000000000000600082015250565b600061140e601883610bcb565b9150611419826113d8565b602082019050919050565b6000602082019050818103600083015261143d81611401565b9050919050565b7f4e6f2070726f706f73616c732065786973740000000000000000000000000000600082015250565b600061147a601283610bcb565b915061148582611444565b602082019050919050565b600060208201905081810360008301526114a98161146d565b9050919050565b7f6f6e6c79206f7765722063616e20676976652072696768740000000000000000600082015250565b60006114e6601883610bcb565b91506114f1826114b0565b602082019050919050565b60006020820190508181036000830152611515816114d9565b905091905056fea264697066735822122014dd6dbfb52190d639d57e2850a20af54ea753ad15c31a205c2c6b6c2a3198e964736f6c634300081c0033",
  "linkReferences": {},
  "deployedLinkReferences": {}
}